:1000000080314E28080001347E14803120007F08A2
:10001000F7002100901E13282000901E13288C3119
:10002000E424803149282100101C1D282000101CC8
:100030001D288C31DF24803149280B1F29282100FD
:10004000141E29282000141E29288E316026803194
:1000500049280B1F35282100131E35282000131EA8
:1000600035288E314C26803149280B1F412821002C
:10007000141C41282000141C41288E313A2680315E
:1000800049282100101E49282000101E49288D31C2
:10009000892577082000FF007E1009008031502854
:1000A000803103208031EF00113084008D308500D5
:1000B00021001200CC001200CD001200CE00120070
:1000C000CF001200D0001200D1001200D2001200A6
:1000D000D300F0308400203085000030FE00013075
:1000E000FF008D31AD258031F801F901FA01FB01E6
:1000F000FC0120308400003085002830FE000030F4
:10010000FF008D31AD258031A030840000308500A6
:100110002030FE000030FF008D31AD2580312030D1
:100120008400013085004030FE000030FF008D313A
:10013000AD257E1020008631FA2E2000DF00E4017C
:100140000830D2005208DE00E0014008D200640806
:10015000203E860001308700520881000130D20025
:100160005208E4075F08D2006408203E8600013090
:100170008700520881000130D2005208E40711299B
:100180003308C9003208C8008C31C32480312000F4
:10019000D2006408203E86000130870052088100AA
:1001A0000130D2005208E4073308C9003208C80001
:1001B0008C31C62480312000D2006408203E8600A5
:1001C00001308700520881000130D2005208E40754
:1001D0003108C9003008C8008C31C32480312000A8
:1001E000D2006408203E860001308700520881005A
:1001F0000130D2005208E4073108C9003008C800B5
:100200008C31C62480312000D2006408203E860054
:1002100001308700520881000130D2005208E40703
:100220004C295F08013A0319C028033A0319C02872
:10023000013A0319C028073A0319C028133A0319D1
:10024000C0284C294C292F08C9002E08C8008C3121
:10025000C32480312000D2006408203E8600013093
:100260008700520881000130D2005208E4072F08AD
:10027000C9002E08C8008C31C62480312000D2006D
:100280006408203E8600013087005208810001305A
:10029000D2005208E407472B5F08053A03192329C7
:1002A000033A03192329093A031923291F3A031989
:1002B0002329063A03192329013A03192329472B35
:1002C000472B2D08C9002C08C8008C31C32480316D
:1002D0002000D2006408203E8600013087005208CA
:1002E00081000130D2005208E4072D08C9002C0813
:1002F000C800362B7030860021308700403FC80090
:10030000413FC9008C31C32480312000D2006408F1
:10031000203E860001308700520881000130D20063
:100320005208E4077030860021308700403FC80043
:10033000413F352B2D08C9002C08C8008C31C3243F
:1003400080312000D2006408203E86000130870002
:10035000520881000130D2005208E4072D08C9007C
:100360002C08C8008C31C62480312000D2006408DB
:10037000203E860001308700520881000130D20003
:100380005208E40707302C05D20000302D05D300B9
:1003900052085304031DDA292D08D3002C08D2007B
:1003A000D336D20CD336D20CD336D20C5208DB0063
:1003B0005308E9292D08D3002C08D200D336D20CDB
:1003C000D336D20CD336D20C5208013EDB000030BB
:1003D000533DDC005B08D2005208DD005D08D2000E
:1003E0006408203E860001308700520881000130F9
:1003F000D2005208E407E3013B2A6336D200D3015E
:10040000D235D30D7030D4002130D50052085407B6
:1004100086005308553D8700403FC800413FC90052
:100420008C31C62480312A2A6336D200D301D235DA
:10043000D30D7030D4002130D50052085407860007
:100440005308553D8700403FC800413FC9008C31EB
:10045000C32480312000D6006408203E860001308D
:100460008700560881000130D2005208E4070130AD
:10047000D2005208E3075D08630203185B2B630890
:100480000139D200D3015308003A0319482A372A08
:100490005208003A0319FD29013A0319142A372A90
:1004A000372A2D08C9002C08C8008C31C32480319C
:1004B0002000D2006408203E8600013087005208E8
:1004C00081000130D2005208E4072D08C9002C0831
:1004D000C8008C31C62480312000D2006408203E40
:1004E000860001308700520881000130D200520896
:1004F000E4072C35C8002D0DC9008C31C62480318D
:100500002000D2006408203E860001308700520897
:1005100081000130D2005208E407E3012D08C90030
:100520002C08C8008C31C6248031200063020318D7
:100530005B2B6308D200D301D235D30D7030D400C9
:100540002130D5005208540786005308553D8700D6
:10055000403FC800413FC9008C31C3248031200096
:10056000D6006408203E86000130870056088100CE
:100570000130D2005208E4076308D200D301D2351B
:10058000D30D7030D4002130D500520854078600B6
:100590005308553D8700403FC800413FC9008C319A
:1005A000C62480312000D6006408203E8600013039
:1005B0008700560881000130D2005208E40701305C
:1005C000D2005208E3078E2A70308600213087005F
:1005D000403FC800413FC9008C31C3248031200016
:1005E000D2006408203E8600013087005208810056
:1005F0000130D2005208E4077030860021308700B5
:10060000403FC800413FC9008C31C62480312000E2
:10061000D2006408203E8600013087005208810025
:100620000130D2005208E407703086002130870084
:100630004231403FC800413FC9008C31C324803162
:100640002000D2006408203E860001308700520856
:1006500081000130D2005208E4077030860021305A
:1006600087004231403FC800413FC9008C31C62459
:1006700080312000D2006408203E860001308700CF
:10068000520881000130D2005208E4075B2B5F085A
:10069000053A03196129033A03197A29093A03191A
:1006A0009A291F3A0319512A063A0319E42A013AF2
:1006B0000319512A5B2BFF30E100FF30E200E30118
:1006C0006408630203187E2B6208C9006108C80031
:1006D0006308203E8600013087000108D2005208DE
:1006E000CA0087318227803120004908E20048088B
:1006F000E1000130D2005208E307602B6208C90014
:100700006108C8008C31C62480312000D200640802
:10071000203E860001308700520881000130D2005F
:100720005208E4076208C9006108C8008C31C3247C
:1007300080312000D2006408203E8600013087000E
:10074000520881000130D2005208E4070D30D20077
:100750006408203E86000130870052088100013085
:10076000D2005208E4070A30D2006408203E860016
:1007700001308700520881002A082B040319C52B79
:100780002B088A002A080A0083312000E30164084C
:1007900063020318E02B6308203E860001308700C7
:1007A00001088D310125803120006308203E86003C
:1007B0000130870081010130D2005208E307C72BC6
:1007C000911A9112E401111EE32B28082904031940
:1007D000EE2B29088A0028080A0083318D31742500
:1007E00080318E312926803120004B08DA004A08FA
:1007F000D9004908D8004808D700902C8D316A25C7
:1008000080312000D2006408203E8600013087003D
:10081000520881000130D2005208E4070130DE02A4
:1008200002306406031D642C2200200820004006CC
:1008300003191C2CE030342C7F30220021052000CD
:10084000D20052085F060319272CE130342C220015
:1008500021082000D2000730D236890B2C2C521CE4
:10086000432C220022082000D2005208E000962CDF
:10087000220022083E2C03303E2C05302000D200FE
:100880005208DE00642C22002108013A0319382C9A
:10089000033A0319382C013A0319382C073A031983
:1008A000382C013A03193B2C033A03193B2C093A23
:1008B00003193B2C1F3A03193B2C063A03193D2C14
:1008C000013A0319382C642C20005709D20058092A
:1008D000D3005909D4005A09D500D20A0319D30A02
:1008E0000319D40A0319D50A8E3129268031200034
:1008F0004808D2074908D33D4A08D43D4B08D53DA6
:100900005508031D8C2C5408031D8C2CD130520229
:100910000730533B031C902CE230D2005208E00019
:100920005E080319962C60080319FE2B6008031D4E
:10093000F72C05306402031CF72CFF30E100FF3078
:10094000E200E3016408FE3ED200FF3003180030ED
:10095000D3005308803A803C031DB02C5208630238
:100960000318CD2C20006208C9006108C800630884
:10097000203E8600013087000108D2005208CA00DC
:1009800087318227803120004908E2004808E100D1
:100990000130D2005208E307A22C20006008031D9A
:1009A000F72C6408FE3E203E860001308700620876
:1009B000C9006108C8008C31C62480310106031DBE
:1009C000F22C20006408FF3E203E860001308700A4
:1009D0006208C9006108C8008C31C3248031010657
:1009E0000319F72CE3302000D2005208E000200069
:1009F00060080319A62DB82D2000E301220022363D
:100A0000200063020318392D403063020318302D93
:100A10006335033E203E8600013087000108D20086
:100A20005208C8006335043E203E8600013087002E
:100A300001088E31B726803120006308D300D4012D
:100A4000D335D40DF030D5002030D60053085507EB
:100A500086005408563D87004808C03F4908C13FFA
:100A60006308D2005208BD000130D2005208E307EB
:100A7000FE2C2200221CB82D4030200063020318F7
:100A8000632D6335033E203E860001308700010858
:100A9000D2005208C80000308E31B72680312000C5
:100AA0006308D300D401D335D40DF030D500203005
:100AB000D6005308550786005408563D870048085D
:100AC000C03F4908C13F6308013ED2005208BD0043
:100AD000B82D2000E3012200223620006302031813
:100AE000B82D4030630203189D2D6335043E203E2F
:100AF0008600013087000108D2005208C800633523
:100B0000033E203E86000130870001088E31B72663
:100B1000803120006308D300D401D335D40DF030E8
:100B2000D5002030D6005308550786005408563D9E
:100B300087004808C03F4908C13F6308D2005208F7
:100B4000BD000130D2005208E3076B2D22002108BE
:100B5000013A0319FC2C033A0319FC2C013A03193E
:100B6000692D073A0319692D133A0319692DB82D18
:100B70002000BF012100B401B5012000BE016008C2
:100B8000080020003C03031D08002100310820005C
:100B90002702031DCF2D2100300820002602031854
:100BA000F62D092E031022000E1C0314031CDB2D4E
:100BB00022000E14022E22000E10022E031022001C
:100BC0008E1C0314031CE72D22008E14022E22001B
:100BD0008E10022E031022000E1D0314031CF32D91
:100BE00022000E15022E22000E11022E20006F0888
:100BF000003A0319D22D013A0319DE2D033A0319E5
:100C0000EA2D022E210032083007B0003308313DB2
:100C1000B100200027082502031D102E26082402FB
:100C2000031C1C2E2C2E22000E10282E22008E10AB
:100C3000282E22000E11282E20006F08003A0319DA
:100C4000132E013A0319162E033A0319192E282ED2
:100C50002000BC01A601A7010530A6070030A73D72
:100C600008002000D4003C030319080050080319B1
:100C700008003D30500203180800BC01BC0A5408AB
:100C8000D2005208EF004D2E22000E14592E2200E1
:100C90008E14592E22000E15592E20006F08003A8E
:100CA0000319442E013A0319472E033A03194A2E19
:100CB000592E2000A601A7015008D200D3015208E6
:100CC000C8005308C900E830CA000330CB008F3198
:100CD0003627863120004908A5004808A4000230C4
:100CE0005102031C8C2E5108D200D301D235D30DF2
:100CF0005208FF3EC800FF30533DC9002508CB0015
:100D00002408CA0087314D27863120004908210078
:100D1000B30020004808922E200025082100B300CF
:100D2000200024082100B2003308B1003208B000CE
:100D3000080022008C018D018E01373021008C00CB
:100D400090308D0030308E00803023008E008D0179
:100D500017308C00803024008D008C018E0125001E
:100D60008C018D018E012700191299121816981600
:100D700017169716B7302000C8000C30C9008D3107
:100D80003D258631B8302000C8000C30C9008D31B7
:100D9000462586312100101600308B1B01302000C3
:100DA000CA008B1355303C008F00AA308F000F1003
:100DB0001508E039143895002408E0390C38A400EF
:100DC0001008E039053890001408E039153894000F
:100DD0003D001D08E03914389D0055303C008F005F
:100DE000AA308F000F1420004A1CF82E8B17080021
:100DF0008B1308008F317127863100302000C80026
:100E0000C9008E31892686318C31D5248631003057
:100E10002000C800C9008E31A02686318C31D8242C
:100E200086318E31E72686312000B801B901FF30C6
:100E300027008E00FF308C008D317E25863120000A
:100E40003908BB003808BA008E310B2686318B1763
:100E50000B172000D001D00AD101D10A0030863111
:100E6000312686318C31C0248631003A031D322F61
:100E700022000D178F31922786318F3192278631CC
:100E800000302000CB000030CA000730C900D0304D
:100E9000C8008731DE2786313D2F2000CD01CE01ED
:100EA0004808490403197D2FCF01CF0AC91B622FBF
:100EB0000130C835C90D890B592F0130CC004C08C1
:100EC000CF07562F0130CD35CE0D890B632F490842
:100ED0004B02031D6D2F48084A02031C742F48085B
:100EE000CA024908CB3B4D140130C936C80C890BE6
:100EF000752F0130CF02031D622F4E08C9004D0827
:100F0000C800080020004A08CB00CC014B08C806E6
:100F10004C08C906CD01CE014E08803ACB00803086
:100F20004B02083003194D02031808002000481C2A
:100F3000A52F4908CC004808CB00CC36CB0C01309B
:100F40004B06C800A0304C06AE2F4908CC0048081C
:100F5000CB00CC36CB0C4B08C8004C08C900013084
:100F6000CD070030CE3D8C2F200037082100B9007E
:100F7000200036082100B8002000C51FC12FC50978
:100F8000C50A7A03031DDA2F4508803A7A3E031C0E
:100F9000DA2F4508803A603E0318D12FFB01FB0A87
:100FA000DA2F4508803A5F3E031CDA2F0230F0004A
:100FB0007008FB00FA01FA0AC50108002100B60119
:100FC000B7012000C101C10A210036082000CC0071
:100FD000210037082000CD00CE01CF014B084F0281
:100FE000031DFC2F4A084E02031DFC2F49084D0229
:100FF000031DFC2F48084C02031CE42FC10108000C
:10196C0008000800080008008F31DA2708008031D1
:10197C000220080020003C0808002000490808004C
:10198C0020004808080022000D1708002800131436
:10199C00080020009717080028001A1408002800D7
:1019AC001310080028001A100800163021009700A8
:1019BC000800200010108D31E02508002000901246
:1019CC008D31EE25080022000D1320009112080025
:1019DC0020004908A9004808A80008002000490870
:1019EC00AB004808AA0008007308F1007208F00068
:1019FC008D31192508002000C800111E032D480840
:101A0C0023009A000800320099019B019D010730C8
:101A1C009F009E0108001E34003400340034FF3453
:101A2C00FF34FF34EF3422008E1521001410941073
:101A3C00141422008E110800013021009D00E030AA
:101A4C009E009F019B019C0108000330250097001C
:101A5C009801960195010C309F040800200049085C
:101A6C002100C100200048082100C000080020000F
:101A7C0049082100C500200048082100C4000800C6
:101A8C00200049082100C300200048082100C200A2
:101A9C000800200049082100C70020004808210048
:101AAC00C6000800200049082100C9002000480891
:101ABC002100C8000800200049082100CB002000AC
:101ACC0048082100CA0008002000911E6A2D23003E
:101ADC009D1C722D1D121D161908080000302100C6
:101AEC00A3000030A2000030A1000030A0000800CC
:101AFC0020008E1E862D0130B8000030B900080081
:101B0C00B801B90108002700191E8F2D8D31B92598
:101B1C008D312700991E08008D31C625080008302C
:101B2C0023009F0090309D0024309E0040309B008D
:101B3C0003309C000800200010100B14B630C800B5
:101B4C000C30C9008D3134252100101408006400BC
:101B5C00800101310130FE020030FF3B7F087E0422
:101B6C0003190034AE2D2100440845040319C32D7C
:101B7C0045088A0044080A008D3127001912080014
:101B8C002100420843040319D02D43088A0042085F
:101B9C000A008D3127009912080020006608B30056
:101BAC006508B2006808B1006708B00003308031E6
:101BBC009D2008008731B4278D3121004008410455
:101BCC000319080041088A0040080A008D310800FA
:101BDC008F31B4278D3121004608470403190800C2
:101BEC0047088A0046080A008D3108002000C90009
:101BFC00AA01AB01A801A9014908C8004808C00006
:101C0C00BF012100B401B50108008E31CF268E3101
:101C1C0000302000C800C9008E3189268E318C31ED
:101C2C00CC24210013160800833025009300940166
:101C3C00920191011F08FC3902389F0020001410FA
:101C4C00210014140800210023082000CB002100DF
:101C5C0022082000CA00210021082000C900210010
:101C6C0020082000C80008002000141025001108CE
:101C7C00F4007408F5001208F4007408F6007608F5
:101C8C00F3007508F2008C31FA24080020001312BE
:101C9C006C082800920020006B082800910021009D
:101CAC00480849040319080049088A0048080A0032
:101CBC008E310800200014126E08280099002000B4
:101CCC006D082800980021004A084B0403190800ED
:101CDC004B088A004A080A008E3108002000970140
:101CEC00493098009B309600950190122100901677
:101CFC00B9302000C8000C30C9008D314F258E3111
:101D0C008C31CF2408002800131D972E13102000AF
:101D1C00490828009200200048082800910013145C
:101D2C0008002000490828009200200048082800DC
:101D3C009100080028001A1DAE2E1A102000490828
:101D4C002800990020004808280098001A14080060
:101D5C002000490828009900200048082800980015
:101D6C0008002000D1004808CA00CB015108CC0063
:101D7C00CD014C08CD00CC0100304C05CF00FF301C
:101D8C004D05D0004A084F04C8004B085004C90048
:101D9C000800EF302100D300FF30D200FF30D1001B
:101DAC00FF30D00000302000A3000030A200003033
:101DBC00A1000030A000B601B7012100BA01BB019F
:101DCC00080022000D138D3195258E3105308D3193
:101DDC00FC258E31C9302000C8000C30C9008C3174
:101DEC00F4248E31E9302000C8000C30C9008C314D
:101DFC00EE240800303028009300940192019101E8
:101E0C0012082000EC00280011082000EB0013122F
:101E1C0021001316BA302000C8000C30C9008D31D7
:101E2C0058258F318C31CC240800303028009A0092
:101E3C009B019901980119082000EE002800180850
:101E4C002000ED00141221001416BD302000C80033
:101E5C000C30C9008D3161258F318C31D2240800B2
:101E6C002000CC01CD01481C3F2F4A08CC074B0861
:101E7C00CD3D0130CA35CB0D890B402F0130C93611
:101E8C00C80C890B452F48084904031D392F4D08F0
:101E9C00C9004C08C80008002000CE0040304E029B
:101EAC0003186C2F4E08CA00CB01CA35CB0DF0308D
:101EBC00CC002030CD004A084C0786004B084D3D25
:101ECC008700403FC800413FC9000800FF30C800F0
:101EDC00FF30C9000800863199268F318D310925D4
:101EEC008F318C31DB248F318D312B258F318D311E
:101EFC0022258F318F3100278F318E311A268F3169
:101F0C008F311B278F318D31A1258F318E31742666
:101F1C008F318D319525080053302000E5000430B9
:101F2C00E6000130E7000030E8008D31D3258F3119
:101F3C002000E9006908EA006A08031DB02F003090
:101F4C008F315227200049082100BF00200048088B
:101F5C002100BE002100BE01BF0108008531C12552
:101F6C008F310530F0000030F1000030F20000300D
:101F7C00F30021002008F0072108F13D2208F23D72
:101F8C002308F33D7308A3007208A2007108A10096
:101F9C007008A00020004103031D0800053021003B
:101FAC00B6070030B73D0800FF30F000FF30F100FD
:101FBC000030F2000030F30020002008F007210868
:101FCC00F13D2208F23D2308F33D7308A30072088B
:101FDC00A2007108A1007008A000F0302302031CBD
:101FEC000800EF30A300FF30A200FF30A100FF304B
:041FFC00A000080039
:020000040001F9
:08000E00ECFFF3FFFFFFFFFF11
:00000001FF
