:1000000080316628080001347E14803120007F088A
:10001000F7002100901E13282000901E13288D3118
:100020006F25803161280B1F1F282100111E1F28FA
:100030002000111E1F288F31E227803161280B1FFD
:100040002B282100911E2B282000911E2B288F3158
:10005000AA27803161282100101C35282000101C9F
:1000600035288D316A25803161280B1F41282100F8
:10007000141E41282000141E41288E31D0268031C4
:1000800061280B1F4D282100131E4D282000131E30
:100090004D288E31BC26803161280B1F5928210044
:1000A000141C59282000141C59288E3186268031B2
:1000B00061282100101E61282000101E61288E3149
:1000C000092677082000FF007E100900803168288B
:1000D000803103208031EF00873084008D3085002F
:1000E000E63086000030870008308D317A25803177
:1000F000F801F901FA01FB01FC01FD014B3084001C
:10010000003085001F308D3174258031A03084008F
:100110000030850046308D317425803120308400D8
:10012000013085003A308D3174258031A030840053
:100130000130850040308D3174257E1020008131E2
:10014000DC2920005C08031D08005B08031D080073
:10015000360803190800F8303602031808003C0876
:10016000BD003D08D7003608BD003D082100A000B5
:1001700020003708BD003D082100A10020003908FB
:10018000BD003D082100A20020003808BD003D0848
:100190002100A300A42920003B08BD003D08210048
:1001A000A40020003A08FD28570886000130870087
:1001B00016000104031DDF28C101C201E328FF303E
:1001C000C1000030C2004108BD003D082100A4006C
:1001D000A50101295708860001308700403FBD0076
:1001E000413FBE003E08BF003F082100A4002000A0
:1001F00057088600013087000108BD003D08210036
:10020000A50006302000BD003D08D900BF290430FC
:10021000363E86008701403FBD00413FBE000430AE
:10022000BE36BD0C890B10293D08BF003F08C50034
:100230004535BD003D08C6000F303A05BD00003011
:100240003B05BE003D083E0403192E290130BD00C8
:100250003D08C6070130BD003D08C5073B08BD008D
:100260003D082100A40020003A08BD003D082100FF
:10027000A50020004608BD003D082100A60007306B
:100280002000BD003D08D900C601C501C301C4015D
:100290003B084402031D4E293A0843020318BF29B4
:1002A0000130C3070030C43D48293B08BD003D086C
:1002B0002100A40020003A08BD003D082100A5004F
:1002C00020003A35BD003D082100A600073020007F
:1002D000BD003D08D900C701C8013B084802031D05
:1002E00073293A0847020318BF2947355707BD004D
:1002F0003D08860001308700403FBE00413FBF00FF
:100300003F08C0005908A03E8600870140088100D0
:100310000130BD003D08D90747355707BD003D08EE
:100320008600013087000108BE005908A03E860003
:1003300087013E0881000130BD003D08D90701302A
:10034000C7070030C83D6D2920003708013A03195E
:10035000CB28033A0319CB28013A0319CB28073AD3
:100360000319CB28013A0319D428033A0319EA28C0
:10037000093A031907291F3A03195529BF292100F2
:10038000911283319E2380312000DB01DB0A111E94
:10039000C72911120030A3000030A2000030A100D4
:1003A0000130A00087319927803121009116220069
:1003B0000D138E31492608008731BB27813100306B
:1003C0002000A000A1008E31F92681318D316025F9
:1003D000813100302000A000A1008F311027813131
:1003E0008D3163258131FF3027008E00FF308C0076
:1003F0008D31FE25813120005408D6005308D500E8
:100400008E31572681318B170B172000A801A80ABF
:10041000A901A90A00308431EC2481318D314825AD
:100420008131003A031D0E2A22000D13A001A00AFB
:1004300003302000C90049082200A100A201A30145
:100440000430A4000030A5003A302000C90049085B
:100450002200A600A701A70A06302000C90049080B
:100460002200A8000430A9000030AA000130AB002F
:100470000030AC0042302000C90049082200AD0025
:1004800000308F3159278131E8302000A00003303F
:10049000A1008031022081318E3175268131FA3000
:1004A000200020072200B20000302000213D220061
:1004B000B30000302000223D2200B40000302000B4
:1004C000233D2200B5002000E001B62A8E317526BA
:1004D00081312000230822003502031D7F2A2000DD
:1004E000220822003402031D7F2A20002108220056
:1004F0003302031D7F2A2000200822003202031845
:10050000DF2A01302000C9004908E007DF2A220065
:100510004208013EC2000030433DC30007302000C6
:10052000C9004908A0005F088E31AA268131203E0B
:1005300086000130870036308400003085000730A7
:100540002000CA0016001A00CA0BA22A8031A1207E
:10055000813101302000C9004908E0070130C9009D
:100560004908DF0702305F02031CDF2ADF01DF2AB0
:100570008231EC2281318D314B258131003A031DCE
:10058000DA2A2000E0018E3175268131FA30200010
:1005900020072200B20000302000213D2200B300DD
:1005A00000302000223D2200B40000302000233D16
:1005B0002200B50022004108C3004008C20020000C
:1005C0006008003A0319662A013A0319872A033A98
:1005D0000319B82ADF2ADF2A8D3151258231200004
:1005E000B8003808BB008E31752682312000230800
:1005F00022003102031D0C2B2000220822003002B1
:10060000031D0C2B2000210822002F02031D0C2BA0
:100610002000200822002E0203181A2B2000DB01E4
:10062000FF30B8003808DA0001302100D20700306E
:10063000D33D080020003B08031908003B0858067A
:1006400003193D2B3B08B8003808D8008E317526B9
:100650003230200020072100C00000302000213D62
:100660002100C10000302000223D2100C2000030E6
:100670002000233D2100C30008008E317526823101
:100680002100430820002302031D562B21004208AD
:1006900020002202031D562B2100410820002102C8
:1006A000031D562B2100400820002002031C0800D7
:1006B000D80187311B2782312000B8003808B900E3
:1006C0003908803A793E03186C2BDB010130210098
:1006D000D2070030D33D08008431802482312000CD
:1006E000B8003808BA003A080319802BDB0108006B
:1006F0008631A22682319B2B86315B2682319B2B51
:1007000021002108013A0319782B033A0319782BA9
:10071000013A03197C2B073A03197C2B013A031980
:100720009B2B033A03199B2B093A03199B2B1F3A66
:1007300003199B2B9B2B2000DB0108002000B1013B
:1007400091122100911222000D17200059088531C5
:10075000B625833120002108B3002008B2003308F9
:10076000AD005908A03E860087012D0881000130A8
:10077000AD002D08D9073208AD005908A03E86000B
:1007800087012D0881000130AD002D08D907B40183
:10079000B5013508803AAD0080302D02031DD22B03
:1007A000590834020318E32B20003408A03E8600C9
:1007B000870101088D31E925833101302000B4071C
:1007C0000030B53DC92B2000D90121005008200080
:1007D000AD00210051082000AE00AF01B0018E3104
:1007E000752620002008AD072108AE3D2208AF3D48
:1007F0002308B03D30082200B10020002F0822005D
:10080000B00020002E082200AF0020002D0822009A
:10081000AE0001302100D4070030D53D0800200093
:100820005D03031D0800210059085D02031D1A2CF9
:1008300058085C020318412C542C031022000E1C93
:100840000314031C262C22000E144D2C22000E1023
:100850004D2C031022008E1C0314031C322C22008A
:100860008E144D2C22008E104D2C031022000E1DD4
:100870000314031C3E2C22000E154D2C22000E11D9
:100880004D2C20006F08003A03191D2C013A031962
:10089000292C033A0319352C4D2C21005A085807EE
:1008A000D8005B08593DD9005D0820005002031DA7
:1008B0005D2C21005C0820004F02031C692C7A2C5F
:1008C00022000E10752C22008E10752C22000E11A5
:1008D000752C20006F08003A0319602C013A0319A7
:1008E000632C033A0319662C752C2000DD012100CE
:1008F000DC01DD0105302100DC070030DD3D0800B2
:100900002000B201B301B401B5015908FF3EA03E79
:10091000860087010108AD00AE015908FE3EA03EE9
:10092000860087010108AF00B0012F08B000AF01B9
:100930002D082F04B2002E083004B3005908FE3EE3
:100940008531B625843120002108B5002008B40087
:1009500033083506031DAE2C320834060319B72CB4
:1009600001302100D2070030D33DFF3008002100C4
:10097000A11FC02C0130D2070030D33DFB3008004E
:100980002000B601B701083037020318E02C370801
:10099000FC3E840087300318013E850000082100DA
:1009A0002106031DD72C2000B601B60AE02C013029
:1009B0002000AD002D08B70708303702031CC72CF4
:1009C0003608031DEA2C01302100D2070030D33D48
:1009D00001300800003008002000AC005D0303195E
:1009E00008002808031908003D30280203180800F1
:1009F000DD01DD0A2C08AA002A08EF00082D2200DC
:100A00000E14142D22008E14142D22000E15142DF8
:100A100020006F08003A0319FF2C013A0319022D38
:100A2000033A0319052D142D2100DC01DD012000FE
:100A30002808AA00AB012A08A0002B08A100E83072
:100A4000A2000330A3008F31C62784312000210883
:100A5000D0002008CF0002302902031C482D2908AD
:100A6000AA00AB01AA35AB0D2A08FF3EA000FF305B
:100A70002B3DA1005008A3004F08A2008631E626B6
:100A80008431200021082100DB00200020084E2DA9
:100A9000200050082100DB0020004F082100DA0070
:100AA0005B08D9005A08D800080022008C018D018B
:100AB0008E01373021008C0090308D0030308E0058
:100AC000803023008E008D0117308C008030240090
:100AD0008D008C018E0125008C018D018E01270077
:100AE0001912991218169816171697163E302000EC
:100AF000A0000D30A1008D31BC2585313F30200094
:100B0000A0000D30A1008D31C525853121001016C2
:100B100000308B1B01302000A2008B1355303C00AD
:100B20008F00AA308F000F101508E0391438950097
:100B30002408E0390C38A4001008E039053890008A
:100B40001408E039153894003D001D08E0391438C8
:100B50009D0055303C008F00AA308F000F142000FC
:100B6000221CB42D8B1708008B1308002000A8004E
:100B7000FF30AB00FF30AC00A901280829020318A0
:100B8000F02D2908A03E860087012B080106AB0046
:100B90002C08AC00AA01AA0A09302A020318EB2D7E
:100BA00001302B05A60000302C05A7000130AC3623
:100BB000AB0C890BD72D260827040319E32D013030
:100BC000AB06A030AC060130A2002208AA0709300B
:100BD0002A02031CD02D0130A2002208A907BD2D36
:100BE0002C08A3002B08A2002308A200A3012208BE
:100BF000A4002308A5002B08A300A20124082204B6
:100C0000AB0025082304AC002C08A1002B08A00091
:100C100008002000A601A11F142EA009A109A00A06
:100C20000319A10AA601A60AA31F1F2EA209A30940
:100C3000A20A0319A30A0130A4002408A606A701EA
:100C4000A8012008210403194E2EA501A50AA11B05
:100C5000332E0130A035A10D890B2A2E0130A400BE
:100C60002408A507272E0130A735A80D890B342E9F
:100C700021082302031D3E2E20082202031C452EBC
:100C80002008A2022108A33B27140130A136A00CA2
:100C9000890B462E0130A502031D332E26080319A9
:100CA000562EA709A809A70A0319A80A2808A1000F
:100CB0002708A000080003302000A9002908AB0085
:100CC000AC010230A0000030A10021002208200069
:100CD000A900AA012908A2002A08A3008631092632
:100CE000863120002108803A803C031D792E20089F
:100CF0002C020318080020002B08013EA03E8600AD
:100D000087010108A9002908A0002B08A03E860041
:100D1000870101088E319826863120002C3557072F
:100D2000AA002A088600013087002008C03F210859
:100D3000C13F0230A9002908AB070130A9002908EA
:100D4000AC07612E2000AB01AC010230A0000030E6
:100D5000A100210022082000A900AA012908A20060
:100D60002A08A30086310926863120002108803A0E
:100D7000803C031DBD2E20082C0203180800200013
:100D80002B08013EA03E860087010108A900290822
:100D9000A0002B08A03E8600870101088E3198260E
:100DA000863120002C355707AA002A08860001301A
:100DB00087002008C03F2108C13F0230A900290850
:100DC000AB070130A9002908AC07A52E2000A5011A
:100DD000A601200821040319162FA701A70AA11BA9
:100DE000FB2E0130A035A10D890BF22E0130A4009D
:100DF0002408A707EF2E0130A535A60D890BFC2E80
:100E000021082302031D062F20082202031C0D2F98
:100E10002008A2022108A33B25140130A136A00C12
:100E2000890B0E2F0130A702031DFB2E2608A100FF
:100E30002508A00008002000A301D9018D3151250B
:100E40008731003A03193A2F8D315425873120001C
:100E5000A2005908A03E86008701220881000130C7
:100E6000A2002208D90720305902031C1E2FA3011B
:100E7000A30A1E2F01302100D6070030D73D2000E5
:100E8000230803194A2F01302100D2070030D33D37
:100E9000FD300800200059080800FF30F000FF3046
:100EA000F1000030F2000030F30020004B08F007A2
:100EB0004C08F13D4D08F23D4E08F33D7308CE005D
:100EC0007208CD007108CC007008CB00F0304E02E3
:100ED000031C0800EF30CE00FF30CD00FF30CC0007
:100EE000FF30CB00080084310F2487310530F0003B
:100EF0000030F1000030F2000030F300210044081F
:100F0000F0074508F13D4608F23D4708F33D7308F8
:100F1000C7007208C6007108C5007008C400200030
:100F20006103031D080005302100DE070030DF3DAE
:100F300008002100DE01DF012000E101E10A2100BB
:100F40005E082000A40021005F082000A500A60183
:100F5000A70123082702031DB72F22082602031D1D
:100F6000B72F21082502031DB72F20082402031CD8
:100F70009F2FE10108008531552587318D31B3253B
:100F800087318D31662587318D31A12587318D31AE
:100F9000982587318E31662687318F3174278731C6
:100FA0008F318F2787318E31152687318E31E42698
:100FB00087318F313F2708002000A10168080319FD
:100FC000DE2F6908A03E8600013087000108A000DE
:100FD0002008A1000130A0002008E90720306902A4
:100FE0000318E9012100911201302000E8022100DC
:100FF000911620002108080001340234033404341F
:08100000053406340F341034EE
:101A7A000800080008000800080087314D27080000
:101A8A008D314125080020005D08080020005B0810
:101A9A0008008F313F2708002000680808008731B6
:101AAA00DC270800280013140800200097170800F4
:101ABA0028001A14080028001310080028001A1019
:101ACA0008001630210097000800200010108D3100
:101ADA00F3250800200090128E313B26080064008E
:101AEA0080010131890B752D0034FE0012001E00A1
:101AFA00FE0B7B2D00347308F1007208F0008D3163
:101B0A008F2508001E34003400340034FF34FF34BB
:101B1A00FF34EF3422008E1521001410941014148F
:101B2A0022008E110800013021009D00E0309E0045
:101B3A009F019B019C010800033025009700980132
:101B4A00960195010C309F0408002000210822000C
:101B5A00DB00200020082200DA00080002303200F0
:101B6A0099009B019D0107309F009E0108002000FB
:101B7A0021082200DF00200020082200DE000800E1
:101B8A00200021082200DD00200020082200DC00BD
:101B9A000800200021082200E1002000200822007D
:101BAA00E0000800200021082200E30020002008AD
:101BBA002200E2000800200021082100EF00200096
:101BCA0020082100EE0008002000A00011122008C1
:101BDA0023009A002000111A0800EF2D22005A084B
:101BEA005B04031908005B088A005A080A008D3151
:101BFA00080020008E1E062E0130D3000030D400CB
:101C0A000800D301D40108002700191E0F2E8E31B7
:101C1A0021268E312700991E08008E312E260800B3
:101C2A00200010100B143D30A0000D30A1008D31A2
:101C3A00AA2521001014080022005E085F04031977
:101C4A002B2E5F088A005E080A008E3127001912BF
:101C5A00080022005C085D040319382E5D088A001A
:101C6A005C080A008E312700991208008731732711
:101C7A008E312200600861040319080061088A0095
:101C8A0060080A008E310800200068080319552EE2
:101C9A008731DC278E312000A2002208A300492EBA
:101CAA00E80108008F3127278E3100302000A0007C
:101CBA00A1008E31F9268E318D3157252100131658
:101CCA0008008330250093009401920191011F08B6
:101CDA00FC3902389F002000141021001414080057
:101CEA00210047082000A300210046082000A20086
:101CFA00210045082000A100210044082000A0007E
:101D0A0008002000141025001108F4007408F500DA
:101D1A001208F4007408F6007608F3007508F20059
:101D2A008D31802508002000A7002008A200A30109
:101D3A002708A400A5012408A500A4012208240755
:101D4A00A0002308253DA10008002000A300A2014D
:101D5A00231CB32E2008A1002108A2070310A00DFE
:101D6A000310A30C2308031DAD2E2208080020002F
:101D7A0013126B082800920020006A0828009100BC
:101D8A002200620863040319080063088A006208D3
:101D9A000A008E310800200014126D0828009900EC
:101DAA0020006C082800980021006E086F040319AF
:101DBA0008006F088A006E080A008E3108002000A9
:101DCA00970149309800263096009501901221001B
:101DDA00901640302000A0000D30A1008D31CE2594
:101DEA008E318D315A2508002800131D072F131034
:101DFA0020002108280092002000200828009100D5
:101E0A00131408002000210828009200200020084E
:101E1A0028009100080028001A1D1E2F1A10200001
:101E2A0021082800990020002008280098001A1488
:101E3A000800200021082800990020002008280016
:101E4A0098000800EF302100ED00FF30EC00FF3071
:101E5A00EB00FF30EA0000302000CE000030CD0059
:101E6A000030CC000030CB00D101D2012100E401C6
:101E7A00E5010800210091121112083023009F0089
:101E8A0090309D0024309E00CF309B009C01FD01C4
:101E9A00FC0120302000A0002008EE00FB01E9012F
:101EAA00E801210091160800E8302100D000033033
:101EBA00D10000302000A4000030A3002530A20089
:101ECA008030A1008D314E252000D901D801210092
:101EDA00D201D301D401D501D601D701080030308F
:101EEA002800930094019201910112082000EB004E
:101EFA00280011082000EA001312210013164230AC
:101F0A002000A0000D30A1008D31D7258F318D31F1
:101F1A0057250800303028009A009B019901980142
:101F2A0019082000ED00280018082000EC001412FF
:101F3A002100141645302000A0000D30A1008D317B
:101F4A00E0258F318D315D25080023009D1CAF2FC0
:101F5A001D121D161908F0007B08A03E86000130EC
:101F6A008700700881000130F0007008FB072030FC
:101F7A007B020318FB010130F00070082000E8071B
:101F8A0008002000A401A501201CCF2F2208A407C5
:101F9A002308A53D0130A235A30D890BD02F0130AE
:101FAA00A136A00C890BD52F20082104031DC92FA7
:101FBA002508A1002408A0000800203020006E0295
:101FCA000318FD2F7C08C03E8600013087000108F7
:101FDA0023009A000130F0007008FC0720307C02D0
:101FEA000318FC010130F00070082000EE07080019
:061FFA0021001112080095
:020000040001F9
:08000E00ECFFF3FFFFFFFFFF11
:00000001FF
