:1000000080314E28080008007E14803120007F08CF
:10001000BD002100901E13282000901E13288D3152
:100020002B25803149282100101C1D282000101C80
:100030001D288D312625803149280B1F29282100B4
:10004000141E29282000141E29288E31D426803120
:1000500049280B1F35282100131E35282000131EA8
:1000600035288E31C026803149280B1F41282100B8
:10007000141C41282000141C41288E31FC2680319C
:1000800049282100101E49282000101E49288D31C2
:10009000C12520003D08FF007E1009008031502856
:1000A000303084008D308500563086000030870067
:1000B0000030FF0005308D31E52580317D30840032
:1000C0008D308500E8308600003087000030FF006A
:1000D00008308D31E5258031F030840020308500F6
:1000E0000030FE000130FF008D31D92580313E30D7
:1000F0008400003085001830FE000030FF008D3194
:10010000D9258031A0308400003085003330FE00D6
:100110000030FF008D31D9257E1020008431C42CA1
:100120000030F000F1008E31502680318D310725EE
:10013000803120003E08AF003F08B0004008B10009
:100140004108B2002D08B3002E08B400B501B60175
:100150003308AF073408B03D3508B13D3608B23D2D
:100160003208C1003108C0003008BF002F08BE00AF
:100170008A2A4508803AAF0080302F02031DC2282A
:10018000213044020318D02820004508803AAF00EF
:100190007F302F02031DCE28E03044020318992A35
:1001A0002000CE01CE0A42308D3165258031992A5A
:1001B00020004108031D992A4008031D992A703028
:1001C0003E0217303F3B0318992A0230AF002F0838
:1001D000CE00D40100302100AB000030AA00003076
:1001E000A9000030A8002000D301EF30D900FF3073
:1001F000D800FF30D700FF30D60043308D31652561
:10020000803122008E14992A200059084102031DD2
:10021000132958084002031D132957083F02031DE4
:10022000132956083E020318AA290130AF002F08EF
:10023000D407972945082100C9002000440821005F
:10024000C80020003E082100A80720003F08210028
:10025000A93D200040082100AA3D200041082100BE
:10026000AB3D992A20003E082100A80720003F0846
:100270002100A93D200040082100AA3D200041089E
:100280002100AB3D20005408FF3EAF00FF300318B3
:100290000030B000210048092000B10021004909C8
:1002A0002000B200B10A0319B20A44083107B300B2
:1002B0004508323DB40030083406031D61292F087B
:1002C0003306031D8C295408AF00B001B101B201FF
:1002D0003208A3003108A2003008A1002F08A000B6
:1002E00021002B082000A70021002A082000A600DA
:1002F000210029082000A500210028082000A400D2
:100300008531FE25803120002308D9002208D8003D
:100310002108D7002008D600D40100302100AB000E
:100320000030AA000030A9000030A800992A20005F
:100330005408013A03191A29033A03192129013AE9
:1003400003192129073A03192129013A03193229EE
:10035000992A992A0030A3000030A2000030A100A1
:100360006430A0005908F3005808F2005708F10063
:100370005608F00021006B08F7006A08F6006908CB
:10038000F5006808F40087313327803173082000B6
:10039000A7007208A6007108A5007008A4008531A6
:1003A000FE258031200020085607AF002108573D68
:1003B000B0002208583DB1002308593DB200320870
:1003C0004102031DED2931084002031DED293008CB
:1003D0003F02031DED292F083E02031C992A01301C
:1003E000AF002F08D307502A45082100C90020007C
:1003F00044082100C800992A20005308FF3EAF009E
:10040000FF3003180030B000210048092000B1007F
:10041000210049092000B200B10A0319B20A4408B8
:100420003107B3004508323DB40030083406031DDF
:100430001B2A2F083306031D4E2ACF01CF0A8F3106
:10044000112780312000C51F312A4409AF0045091A
:10045000B000AF0A0319B00A2F08C6003008C70061
:10046000352A4508C7004408C6008D3197258031DC
:10047000343070072100A4000830713DA500003021
:10048000723DA6000030733DA70044308D316525D4
:10049000803103302000AF002F08CE00D301992A0D
:1004A0005308013A0319F429033A0319992A013A26
:1004B0000319992A073A0319992A013A0319FC29C1
:1004C000992A992A8D3197258031730821002702B6
:1004D000031D742A72082602031D742A710825025E
:1004E000031D742A700824020318992A2000CE01E3
:1004F000C401C501EF30D900FF30D800FF30D7006C
:10050000FF30D60041308D31652580318E3118267F
:100510008031992A20004E08003A0319B928013A7F
:100520000319D828033A03190429013A0319622A46
:10053000992A200041082100AF0020004008210036
:10054000AE0020003F082100AD0020003E08210041
:10055000AC0000302000C1000030C0000030BF00FF
:100560000030BE00D001D00A49082100CB00200095
:1005700048082100CA008D31AB25803121004A088E
:100580004B04031DDC2A200048034904031DDC2A18
:100590000E1ED32AFF30C407FF30C53DFF30AF0029
:1005A0002F08D20708000130C4070030C53D0130D4
:1005B000AF002F08D207080021004A034B04031D97
:1005C0000800200048084904031D08000E1EF12AF7
:1005D0000130C4070030C53D0130AF002F08D207FD
:1005E0000800FF30C407FF30C53DFF30AF002F08C3
:1005F000D207080020004E030319022B02304E06DA
:10060000031D1A2B5008031D1A2B4108031D102B24
:1006100081303E0284303F3B1E30403B031C1A2B8E
:10062000CE018F313D27823131308D31A12582318C
:1006300022008E1020004F03031D4D2CCF012200FD
:100640008E100230A4002408A0000F30A500250859
:10065000A10000308431532482310D308D31A12529
:1006600082310A308D31A12582314E308D31A12564
:10067000823175308D31A125823174308D31A125C3
:10068000823120308D31A125823152308D31A1252A
:10069000823175308D31A12582314E308D31A125C9
:1006A00082313D308D31A125823130308D31A1250F
:1006B000823178308D31A1258231200047088F3179
:1006C000532782318D31A1258231200047088E3198
:1006D0008C2682318D31A1258231200046088F3150
:1006E000532782318D31A1258231200046088E3179
:1006F0008C2682318D31A12582312C308D31A1257E
:100700008231200056082200A40020005708220051
:10071000A500200058082200A60020005908220049
:10072000A7001830A736A60CA50CA40C890B922B99
:1007300024088F31532782318D31A1258231200049
:1007400056082200A400200057082200A50020001F
:1007500058082200A600200059082200A7001830DF
:10076000A736A60CA50CA40C890BB02B24088E313F
:100770008C2682318D31A12582312000560822003D
:10078000A400200057082200A500200058082200DD
:10079000A600200059082200A7001030A736A60C9A
:1007A000A50CA40C890BCE2B24088F315327823142
:1007B0008D31A1258231200056082200A40020009E
:1007C00057082200A500200058082200A60020009B
:1007D00059082200A7001030A736A60CA50CA40CBF
:1007E000890BEC2B24088E318C2682318D31A1258A
:1007F0008231200056082200A40020005708220061
:10080000A500200058082200A60020005908220058
:10081000A7000830A736A60CA50CA40C890B0A2C3F
:1008200024088F31532782318D31A1258231200058
:1008300056082200A400200057082200A50020002E
:1008400058082200A600200059082200A7000830FE
:10085000A736A60CA50CA40C890B282C24088E31D5
:100860008C2682318D31A1258231200056088F31AE
:10087000532782318D31A1258231200056088E31D7
:100880008C2682318D31A12582310D308D31A1250B
:1008900082310A308D31A125823120005003031DA1
:1008A0000800D00108002100E70020004A030319D6
:1008B000080022002008031908003D302002031818
:1008C00008002000CA01CA0A210067082200A2000D
:1008D00022082000DA00752C22000E14812C220040
:1008E0008E14812C22000E15812C20005A08003A0B
:1008F00003196C2C013A03196F2C033A0319722C5B
:10090000812C2100B601B70122002008A200A3011A
:1009100022082100DF00220023082100E000E83047
:10092000E1000330E2008F31E427843121006008C8
:10093000B1005F08B000023022002102031CBA2C73
:100940002108A200A301A235A30D2208FF3E210029
:10095000DF00FF302200233D2100E0003108E200EB
:100960003008E1008631C926843121006008B500D5
:100970005F08BE2C21003108B5003008B4003508EE
:10098000B3003408B20008008731AE27843100304C
:100990002100DF00E0008F31692784318D311C2573
:1009A000843100302100DF00E0008F318027843166
:1009B0008D311F2584318F31972784312000C80164
:1009C000C901FF3027008E00FF308C008D31B62525
:1009D0008431200049082100CB0020004808210074
:1009E000CA008E316E2684318B170B172200A001AE
:1009F000A00AA101A10A00308431532484318D3131
:100A000010258431003A031DFF2C2200A001A00A0A
:100A1000A101A10A01308431532484318D31102584
:100A20008431003A031D0E2D2200A001A00AA1016D
:100A3000A10A02308431532484318D311025843150
:100A4000003A031D1D2D22000D173E308D31A125CA
:100A500084313E308D31A12584318231FA228431B6
:100A60002D2D20004A03031D080021003308370202
:100A7000031D3C2D320836020318632D762D03101A
:100A800022000E1C0314031C482D22000E146F2D8F
:100A900022000E106F2D031022008E1C0314031C65
:100AA000542D22008E146F2D22008E106F2D0310F6
:100AB00022000E1D0314031C602D22000E156F2D45
:100AC00022000E116F2D20005A08003A03193F2D05
:100AD000013A03194B2D033A0319572D6F2D2100AD
:100AE00034083207B2003508333DB300370831020D
:100AF000031D7C2D36083002031C882D992D220001
:100B00000E10942D22008E10942D22000E11942D83
:100B100020005A08003A03197F2D013A0319822D4B
:100B2000033A0319852D942D2000CA012100B60136
:100B3000B7010530B6070030B73D080022008C0130
:100B40008D018E01373021008C0090308D003030C7
:100B50008E00803023008E008D0117308C00803095
:100B600024008D008C018E0125008C018D018E01E9
:100B70002700191299121816981617169716FF3093
:100B80002100DF000C30E0008D3147258531003039
:100B90002100DF000D30E0008D314D258531210031
:100BA000101600308B1B0130E1008B1355303C00D8
:100BB0008F00AA308F000F101508E0391438950007
:100BC0002408E0390C38A4001008E03905389000FA
:100BD0001408E039153894003D001D08E039143838
:100BE0009D0055303C008F00AA308F000F1421006B
:100BF000611CFC2D8B1708008B13080000302000AF
:100C0000AB000030AA000030A9000030A800230883
:100C10002204210420040319482EAC01AC0AA31BB2
:100C20001D2E0130A035A10DA20DA30D890B122E92
:100C30000130FC007C08AC070F2E0130A835A90D4F
:100C4000AA0DAB0D890B1E2E23082702031D322E81
:100C500022082602031D322E21082502031D322EF2
:100C600020082402031C3D2E2008A4022108A53BD5
:100C70002208A63B2308A73B28140130A336A20C68
:100C8000A10CA00C890B3E2E0130AC02031D1D2EC1
:100C90002B08A3002A08A2002908A1002808A00008
:100CA0000800200045082100C7002000440821005A
:100CB000C6002000D21F5E2ED209D20A5103031DA6
:100CC0008E2E5208803A7A3E031C8E2E5208803AAD
:100CD000603E0318702E2100D201D20A58307C2EBB
:100CE00020005208803A5F3E031C8E2E0230F7002F
:100CF00077082100D20059308D31652586312000DA
:100D000052088E31AC2686318D3165258631200022
:100D100052088E31262686318D3165252000D1017D
:100D2000D10AD20108002100E0003030DF005F0866
:100D3000E100BD2E3030B92E3130B92E3230B92E0F
:100D40003330B92E3430B92E3530B92E3630B92E75
:100D50003730B92E3830B92E3930B92E4130B92E4E
:100D60004230B92E4330B92E4430B92E4530B92E19
:100D70004630DF005F08E100C72E600884001030B5
:100D800004020318C72E87310435CF3E8200610864
:100D900008002100E501E6015F0860040319F92E4F
:100DA000E401E40AE01BDE2E0130DF35E00D890BA3
:100DB000D52E0130E3006308E407D22E0130E5357B
:100DC000E60D890BDF2E60086202031DE92E5F0825
:100DD0006102031CF02E5F08E1026008E23B65142B
:100DE0000130E036DF0C890BF12E0130E402031DE7
:100DF000DE2E6608E0006508DF000800F1003030F4
:100E0000F0007008F200272F3030232F3130232FCD
:100E10003230232F3330232F3430232F3530232FFC
:100E20003630232F3730232F3830232F3930232FDC
:100E30004130232F4230232F4330232F4430232FA0
:100E40004530232F4630F0007008F200312F710832
:100E50008400103004020318312F88310435003E1D
:100E60008200720808000030FB000030FA000030F9
:100E7000F9000030F800701C452F7408F807750859
:100E8000F93D7608FA3D7708FB3D0130F435F50D64
:100E9000F60DF70D890B462F0130F336F20CF10CED
:100EA000F00C890B4D2F7308720471047004031D3C
:100EB0003B2F7B08F3007A08F2007908F1007808EC
:100EC000F0000800FF30F000FF30F1000030F200C9
:100ED0000030F30020003E08F0073F08F13D4008D5
:100EE000F23D4108F33D7308C1007208C00071086B
:100EF000BF007008BE00F0304102031C0800EF3054
:100F0000C100FF30C000FF30BF00FF30BE0008004E
:100F10008531312587310530F0000030F100003097
:100F2000F2000030F30021002008F0072108F13D15
:100F30002208F23D2308F33D7308A3007208A200C3
:100F40007108A1007008A00020004D03031D0800D7
:100F500005302100C4070030C53D080085319E25BD
:100F600087318D31752587318D31222587318D313E
:100F70008E2587318D31852587318F31B027873197
:100F80008E317D2687318F31CA2787318E310B26EE
:100F900087318E31E82687318D31CD2508008631A5
:100FA0009A2E86319C2E86319E2E8631A02E863139
:100FB000A22E8631A42E8631A62E8631A82E863109
:100FC000AA2E8631AC2E8631AE2E8631B02E8631D9
:100FD000B22E8631B42E8631B62E8631B82E22003E
:100FE0008E1521001410941020003808AE00370828
:100FF000AD00803190202100141422008E110800D1
:101000008731042F8731062F8731082F87310A2F28
:1010100087310C2F87310E2F8731102F8731122FF8
:101020008731142F8731162F8731182F87311A2FC8
:1010300087311C2F87311E2F8731202F8731222F98
:1019FC0008000800080028001310080028001A101E
:101A0C000800280013140800873162270800803171
:101A1C000320080020004A080800280013140800BE
:101A2C0020009717080028001A140800280013102B
:101A3C00080028001A100800163021009700080032
:101A4C00200010108E3134260800200090128E31A8
:101A5C0042260800FF34FF34FF34EF3401342100F8
:101A6C006008B9005F08B800080021006008BB00DE
:101A7C005F08BA00080021006008D4005F08D3009A
:101A8C00080021006008D8005F08D700080021007A
:101A9C006008D6005F08D500080021006008DA0055
:101AAC005F08D900080021006008DC005F08DB003B
:101ABC00080021006008DE005F08DD000800F0006F
:101ACC002000111E662D700823009A0008002000CB
:101ADC003A08B8003908B7008731EF270800320000
:101AEC0099019B019D0107309F009E0108001E3447
:101AFC000034003400340434003430340034013009
:101B0C0021009D00E0309E009F019B019C0108007C
:101B1C000330250097009801960195010C309F0425
:101B2C00080021002308F3002208F2002108F1002C
:101B3C002008F00008002100DF002000111EA32D5A
:101B4C0021005F0823009A00080020008E1EB32D90
:101B5C000130C8000030C9000800C801C9010800E4
:101B6C0020008E1EBE2D0130C8000030C9000800B8
:101B7C00C801C90108002700191EC72D8D31F12598
:101B8C008D312700991E08008D31FE250800183074
:101B9C0023009F0090309D0024309E0040309B001D
:101BAC0003309C0008006400800101310130FE020A
:101BBC000030FF3B7F087E0403190034DA2DFE0051
:101BCC0012001E000130FE020030FF3B7F087E0435
:101BDC0003190034E62D2100570858040319FB2D76
:101BEC0058088A0057080A008D312700191208007E
:101BFC002100550856040319082E56088A0055086A
:101C0C000A008E31270099120800200010100B14C6
:101C1C00FE302100DF000C30E0008D314125210029
:101C2C00101408008F3127278E310030F000F1009E
:101C3C008E3150268E318D31072521001316080068
:101C4C00F40074080F39F3007308F5007508863139
:101C5C00FE26F3007308F50075080800863151263E
:101C6C008E312100530854040319080054088A00CB
:101C7C0053080A008E310800873188278E312100E5
:101C8C0059085A04031908005A088A0059080A000E
:101C9C008E3108002800131D5A2E13107108920063
:101CAC0070089100131408007108920070089100DC
:101CBC00080028001A1D692E1A1071089900700866
:101CCC0098001A1408007108990070089800080010
:101CDC008F313D278E3100302100DF00E0008F3145
:101CEC0069278E318D31132521001316080083309E
:101CFC00250093009401920191011F08FC390238D0
:101D0C009F00200014102100141408002100E3008F
:101D1C0063080F39E2006208E400640886319326F8
:101D2C002100E2006208E400640808002100E000E1
:101D3C00BA01BB01B801B9016008DF005F082000DF
:101D4C00CC00CB012100BC01BD010800F5007508D9
:101D5C00F3000430F336890BB02E73080F39F400FE
:101D6C007408F60076088631FE26F3007308F60038
:101D7C0076080800200013125C082800920020004E
:101D8C005B082800910021005B085C040319080023
:101D9C005C088A005B080A008E31080020001412CF
:101DAC005E082800990020005D082800980021009A
:101DBC005D085E04031908005E088A005D080A00CD
:101DCC008E31080020009701493098009B30960016
:101DDC0095019012210090160230DF000030E000D7
:101DEC008D3153258E318D311625080020001410AD
:101DFC0025001108FD007D082000BB0025001208FD
:101E0C00FD007D082000BC003C08BA003B08B9006E
:101E1C008D316D2508000030F000F1008E31502618
:101E2C008F318D3101258F31210013120030F000DC
:101E3C00F1008E315F268F318D3104252100141273
:101E4C000800EF302000D900FF30D800FF30D70059
:101E5C00FF30D6000030C1000030C0000030BF00A1
:101E6C000030BE00C401C501C601C7010800EF3037
:101E7C002000D900FF30D800FF30D700FF30D6004B
:101E8C000030C1000030C0000030BF000030BE0088
:101E9C00C401C501C601C70108002100E4006408A3
:101EAC00E2000430E236890B582F62080F39E30048
:101EBC006308E5006508863193262100E20062087C
:101ECC00E500650808002800131D772F131021006A
:101EDC0060082800920021005F082800910013146C
:101EEC000800210060082800920021005F082800EB
:101EFC009100080028001A1D8E2F1A10210060086E
:101F0C002800990021005F08280098001A14080086
:101F1C00210060082800990021005F082800980023
:101F2C00080022000D138D31CD258F3105308E31F7
:101F3C009C268F3100302100DF000030E0008D3115
:101F4C003B258F3100302100DF000030E0008D3167
:101F5C00352508003030280093009401920191013E
:101F6C0012082000DC00280011082000DB001312EE
:101F7C00210013160A30DF000D30E0008D31592599
:101F8C008F318D3113250800303028009A009B01C9
:101F9C009901980119082000DE002800180820007B
:101FAC00DD001412210014160D30DF000D30E0009E
:101FBC008D315F258F318D31192508002100E3010A
:101FCC00E4015F1CED2F6108E3076208E43D01307A
:101FDC00E135E20D890BEE2F0130E036DF0C890B79
:101FEC00F32F5F086004031DE72F6408E00063080B
:041FFC00DF000800FA
:020000040001F9
:08000E00ECFFF3FFFFFFFFFF11
:00000001FF
