:1000000080314E28080008007E14803120007F08CF
:10001000BD002100901E13282000901E13288D3152
:10002000D225803149282100101C1D282000101CD9
:100030001D288D31CD25803149280B1F292821000D
:10004000141E29282000141E29288F31542780319E
:1000500049280B1F35282100131E35282000131EA8
:1000600035288F314027803149280B1F4128210036
:10007000141C41282000141C41288F317C2780311A
:1000800049282100101E49282000101E49288E31C1
:10009000502620003D08FF007E10090080315028C6
:1000A000D73084008D3085001200D6001200D700B2
:1000B0001200D8001200D9001200DA000C308400BF
:1000C0008E30850021001200EA001200EB001200C1
:1000D000EC001200ED001200EE001200EF00F03014
:1000E0008400203085000030FE000130FF008E319A
:1000F000682680313E308400003085001830FE00D4
:100100000030FF008E3168268031A030840000303E
:1001100085003330FE000030FF008E3168267E10EF
:1001200020008431FF2C0030F000F1008E31C52614
:1001300080318D31AE25803120003E08AF003F0870
:10014000B0004008B1004108B2002D08B3002E08ED
:10015000B400B501B6013308AF073408B03D350827
:10016000B13D3608B23D3208C1003108C000300848
:10017000BF002F08BE00862A4508803AAF008030B5
:100180002F02031DC528213044020318D328200064
:100190004508803AAF007F302F02031DD128E030A0
:1001A00044020318952A2000CE01CE0A21308E3158
:1001B00012268031952A20004108031D952A400807
:1001C000031D952AB8303E020B303F3B0318952A99
:1001D0000230AF002F08CE00D40100302100AB0068
:1001E0000030AA000030A9000030A8002000D30190
:1001F000EF30D900FF30D800FF30D700FF30D600F5
:1002000040308E3112268031952A20005908410253
:10021000031D142958084002031D142957083F02E2
:10022000031D142956083E020318AB290130AF0004
:100230002F08D407982945082100C9002000440848
:100240002100C80020003E082100A80720003F0828
:100250002100A93D200040082100AA3D20004108BE
:100260002100AB3D952A20003E082100A807200070
:100270003F082100A93D200040082100AA3D2000A0
:1002800041082100AB3D20005408FF3EAF00FF3085
:1002900003180030B000210048092000B1002100FF
:1002A00049092000B200B10A0319B20A4408310713
:1002B000B3004508323DB40030083406031D6229FE
:1002C0002F083306031D8D295408AF00B001B1017A
:1002D000B2013208A3003108A2003008A1002F08A3
:1002E000A00021002B082000A70021002A082000E0
:1002F000A600210029082000A500210028082000D0
:10030000A4008531C125803120002308D9002208AE
:10031000D8002108D7002008D600D40100302100E1
:10032000AB000030AA000030A9000030A800952AD8
:1003300020005408013A03191B29033A0319222902
:10034000013A03192229073A03192229013A03190C
:100350003329952A952A0030A3000030A2000030EE
:10036000A1000A30A00021006A08F0006B08F1002B
:10037000F201F30120005908F7005808F600570869
:10038000F5005608F4008631B42680317308200049
:10039000A7007208A6007108A5007008A4008531A6
:1003A000C1258031200020085607AF002108573DA5
:1003B000B0002208583DB1002308593DB200320870
:1003C0004102031DED2931084002031DED293008CB
:1003D0003F02031DED292F083E02031C952A013020
:1003E000AF002F08D3074C2A45082100C900200080
:1003F00044082100C800952A20005308FF3EAF00A2
:10040000FF3003180030B000210048092000B1007F
:10041000210049092000B200B10A0319B20A4408B8
:100420003107B3004508323DB40030083406031DDF
:100430001B2A2F083306031D4A2ACF01CF0A8F310A
:10044000912780312000C51F312A4409AF0045099A
:10045000B000AF0A0319B00A2F08C6003008C70061
:10046000352A4508C7004408C6008E313C26803135
:10047000343070072100A4000830713DA500003021
:10048000723DA6000030733DA70003302000AF008E
:100490002F08CE00D301952A5308013A0319F429F5
:1004A000033A0319952A013A0319952A073A0319C1
:1004B000952A013A0319FC29952A952A8E313C2662
:1004C0008031730821002702031D702A720826025A
:1004D000031D702A71082502031D702A700824026A
:1004E0000318952A2000CE01C401C501EF30D900C0
:1004F000FF30D800FF30D700FF30D60024308E31D7
:10050000122680318E319B268031952A20004E089C
:10051000003A0319BC28013A0319DB28033A0319EE
:100520000529013A03195E2A952A20004108210075
:10053000AF00200040082100AE0020003F0821004D
:10054000AD0020003E082100AC0000302000C100BA
:100550000030C0000030BF000030BE00D001D00A23
:1005600021004F08CB004E08CA008E31E32601302F
:100570002000C4070030C53D0130AF002F08D2076E
:10058000080020004E030319C92A02304E06031D3D
:10059000E72A5008031DE72A4108031DD82A40080E
:1005A000031DD82A11303E0227303F3B031CE72AA7
:1005B000CE01C401C501EF30D900FF30D800FF30B3
:1005C000D700FF30D60025308E31462682312000FC
:1005D0004F03031D1C2CCF0102302200A200220871
:1005E0002100E7000F302200A30023082100E800CB
:1005F00000308431222482310D308E314626823102
:100600000A308E31462682314E308E314626823176
:1006100075308E314626823174308E3146268231D5
:1006200020308E314626823152308E31462682313C
:1006300075308E31462682314E308E3146268231DB
:100640003D308E314626823130308E314626823121
:1006500078308E3146268231200047088F31BD2701
:1006600082318E3146268231200047088F311F2784
:1006700082318E3146268231200046088F31BD27D7
:1006800082318E3146268231200046088F311F2765
:1006900082318E31462682312C308E31462682318F
:1006A000200056082200A200200057082200A300C4
:1006B000200058082200A400200059082200A500AC
:1006C0001830A536A40CA30CA20C890B612B2208B0
:1006D0008F31BD2782318E31462682312000560867
:1006E0002200A200200057082200A3002000580882
:1006F0002200A400200059082200A5001830A536C9
:10070000A40CA30CA20C890B7F2B22088F311F276E
:1007100082318E3146268231200056082200A20006
:10072000200057082200A300200058082200A4003F
:10073000200059082200A5001030A536A40CA30CF7
:10074000A20C890B9D2B22088F31BD2782318E315F
:1007500046268231200056082200A20020005708B9
:100760002200A300200058082200A40020005908FD
:100770002200A5001030A536A40CA30CA20C890BF6
:10078000BB2B22088F311F2782318E3146268231C2
:10079000200056082200A200200057082200A300D3
:1007A000200058082200A400200059082200A500BB
:1007B0000830A536A40CA30CA20C890BD92B220857
:1007C0008F31BD2782318E31462682312000560876
:1007D0002200A200200057082200A3002000580891
:1007E0002200A400200059082200A5000830A536E8
:1007F000A40CA30CA20C890BF72B22088F311F2706
:1008000082318E3146268231200056088F31BD2735
:1008100082318E3146268231200056088F311F27C3
:1008200082318E31462682310D308E31462682311C
:100830000A308E314626823120005003031D080005
:10084000D00108002100E900200048030319080036
:1008500021006708031908003D30670203180800EB
:100860002000C801C80A210069082200A000200851
:100870002000DA00442C22000E14502C22008E148A
:10088000502C22000E15502C20005A08003A031953
:100890003B2C013A03193E2C033A0319412C502CEE
:1008A0002100B601B70167082200A000A1012008BD
:1008B0002100DF00220021082100E000E830E100F3
:1008C0000330E20087317027843121006008B100D5
:1008D0005F08B00002306802031C892C68082200FF
:1008E000A000A101A035A10D2008FF3E2100DF00DE
:1008F000FF302200213D2100E0003108E2003008F5
:10090000E10086314A26843121006008B5005F0885
:100910008C2C3108B5003008B4003508B300340819
:10092000B200080020004803031D0800210033081E
:100930003702031D9D2C320836020318C42CD72C15
:10094000031022000E1C0314031CA92C22000E14F9
:10095000D02C22000E10D02C031022008E1C031469
:10096000031CB52C22008E14D02C22008E10D02C0B
:10097000031022000E1D0314031CC12C22000E15AF
:10098000D02C22000E11D02C20005A08003A031956
:10099000A02C013A0319AC2C033A0319B82CD02C23
:1009A000210034083207B2003508333DB300370860
:1009B0003102031DDD2C36083002031CE92CFA2C11
:1009C00022000E10F52C22008E10F52C22000E11A4
:1009D000F52C20005A08003A0319E02C013A0319BB
:1009E000E32C033A0319E62CF52C2000C801210062
:1009F000B601B7010530B6070030B73D08008731B2
:100A00002F27843100302100DF00E0008F31E927FB
:100A100084318D31C325843100302100DF00E000B6
:100A20008731D92784318D31C62584318731C0275C
:100A300084312100CE01CF01FF3027008E00FF302E
:100A40008C008F311027843121004F08CB004E08D5
:100A5000CA008E31F22684318B170B172100E70173
:100A6000E70AE801E80A00308431222484318D311C
:100A7000B7258431003A031D372D2100E701E70A2D
:100A8000E801E80A01308431222484318D31B72510
:100A90008431003A031D462D2100E701E70AE801F1
:100AA000E80A02308431222484318D31B725843123
:100AB000003A031D552D22000D178231C1228431C9
:100AC0005D2D22008C018D018E01373021008C00BC
:100AD00090308D0030308E00803023008E008D01EC
:100AE00017308C00803024008D008C018E01250091
:100AF0008C018D018E012700191299121816981673
:100B000017169716A6302100DF000D30E0008D315A
:100B1000EE258531A7302100DF000D30E0008D315A
:100B2000F42585312100101600308B1B0130E100C7
:100B30008B1355303C008F00AA308F000F10150822
:100B4000E039143895002408E0390C38A400100866
:100B5000E039053890001408E039153894003D005C
:100B60001D08E03914389D0055303C008F00AA3034
:100B70008F000F142100611CBF2D8B1708008B13F1
:100B8000080000302000AB000030AA000030A900AF
:100B90000030A800230822042104200403190B2E8E
:100BA000AC01AC0AA31BE02D0130A035A10DA20DB4
:100BB000A30D890BD52D0130FC007C08AC07D22D8C
:100BC0000130A835A90DAA0DAB0D890BE12D230825
:100BD0002702031DF52D22082602031DF52D2108ED
:100BE0002502031DF52D20082402031C002E2008D9
:100BF000A4022108A53B2208A63B2308A73B2814F2
:100C00000130A336A20CA10CA00C890B012E0130DF
:100C1000AC02031DE02D2B08A3002A08A20029081E
:100C2000A1002808A00008002100E0003030DF000B
:100C30005F08E1003E2E30303A2E31303A2E32300D
:100C40003A2E33303A2E34303A2E35303A2E363072
:100C50003A2E37303A2E38303A2E39303A2E41304B
:100C60003A2E42303A2E43303A2E44303A2E453016
:100C70003A2E4630DF005F08E100482E600884000D
:100C8000103004020318482E87310435503E82008C
:100C9000610808002100E501E6015F08600403190E
:100CA0007A2EE401E40AE01B5F2E0130DF35E00D0F
:100CB000890B562E0130E3006308E407532E013000
:100CC000E535E60D890B602E60086202031D6A2E71
:100CD0005F086102031C712E5F08E1026008E23BBD
:100CE00065140130E036DF0C890B722E0130E4020E
:100CF000031D5F2E6608E0006508DF000800200085
:100D000045082100C700200044082100C60020003B
:100D10005103031DAF2E5208803A603E0318952EF2
:100D20005208803A7F3E03189C2E20005208803AD9
:100D30009F3E0318D21FA12E2100D201D20A5830A3
:100D4000AD2E20005208803A5F3E0318AC2E5208A8
:100D5000803AA03E0318AF2E59308E311226200063
:100D6000D101D10AD20108000030FB000030FA00A6
:100D70000030F9000030F800701CC62E7408F80727
:100D80007508F93D7608FA3D7708FB3D0130F435EA
:100D9000F50DF60DF70D890BC72E0130F336F20C69
:100DA000F10CF00C890BCE2E7308720471047004E0
:100DB000031DBC2E7B08F3007A08F2007908F100CD
:100DC0007808F0000800FF30F000FF30F10000303C
:100DD000F2000030F30020003E08F0073F08F13D2C
:100DE0004008F23D4108F33D7308C1007208C0009D
:100DF0007108BF007008BE00F0304102031C0800FB
:100E0000EF30C100FF30C000FF30BF00FF30BE0038
:100E100008008431922487310530F0000030F10061
:100E20000030F2000030F30021002008F007210814
:100E3000F13D2208F23D2308F33D7308A300720838
:100E4000A2007108A1007008A00020004D03031D3E
:100E5000080005302100C4070030C53D0800853179
:100E6000612587318E31222687318D31C925873121
:100E70008E31332687318E312A2687318731A62756
:100E800087318F310127873187318C2787318E3128
:100E90008E2687318F31682787318E315C26080096
:100EA00086311B2E86311D2E86311F2E8631212E36
:100EB0008631232E8631252E8631272E8631292E06
:100EC00086312B2E86312D2E86312F2E8631312ED6
:100ED0008631332E8631352E8631372E8631392EA6
:100EE0002100E301E4015F1C792F6108E307620838
:100EF000E43D0130E135E20D890B7A2F0130E03617
:100F0000DF0C890B7F2F5F086004031D732F6408BB
:100F1000E0006308DF000800303028009A009B01E1
:100F20009901980119082000DE0028001808200007
:100F3000DD00141221001416B430DF000D30E00083
:100F40008E31062687318D31C025080030302800CB
:100F5000930094019201910112082000DC00280006
:100F600011082000DB00131221001316B130DF003E
:100F70000D30E0008E31002687318D31BA25080012
:100F800022000D138E315C26873105308731F02722
:100F9000873100302100DF000030E0008D31E22594
:100FA000873100302100DF000030E0008D31DC258A
:100FB000080028001A1DE72F1A10210060082800D9
:100FC000990021005F08280098001A1408002100E9
:100FD00060082800990021005F0828009800080098
:100FE0002100E000BA01BB01B801B9016008DF00CF
:100FF0005F082000CC00CB012100BC01BD0108002E
:101B4A0008000800080028001310080028001A10CE
:101B5A0008002800131408008631E32608008031A3
:101B6A000320080020004808080028001314080071
:101B7A0020009717080028001A14080028001310DC
:101B8A00080028001A1008001630210097000800E3
:101B9A00200010108E31A9260800200090128E31E4
:101BAA00B7260800FF34FF34FF34EF340134210034
:101BBA006008B9005F08B800080021006008BB008F
:101BCA005F08BA00080021006008D4005F08D3004B
:101BDA00080021006008D8005F08D700080021002B
:101BEA006008D6005F08D500080021006008DA0006
:101BFA005F08D900080021006008DC005F08DB00EC
:101C0A00080021006008DE005F08DD0008000334D8
:101C1A0000340434003430340034F0002000111E43
:101C2A00132E700823009A00080020003A08B80012
:101C3A003908B7008F312F270800320099019B011C
:101C4A009D0107309F009E010800013021009D0080
:101C5A00E0309E009F019B019C0108000330250093
:101C6A0097009801960195010C309F040800210005
:101C7A002308F3002208F2002108F1002008F000EE
:101C8A0008002100DF002000111E482E21005F08F5
:101C9A0023009A0008002700191E562E8E3174263A
:101CAA008E312700991E08008E31812608001830CF
:101CBA0023009F0090309D0024309E0040309B00FE
:101CCA0003309C0008006400800101310130FE02EB
:101CDA000030FF3B7F087E0403190034692E21007F
:101CEA005708580403197E2E58088A0057080A0014
:101CFA008E312700191208002100550856040319CD
:101D0A008B2E56088A0055080A008E312700991230
:101D1A000800200010100B14A5302100DF000D3040
:101D2A00E0008D31E8252100101408008F31A72723
:101D3A008E310030F000F1008E31C5268E318D31A2
:101D4A00AE2521001316080086317F268E31210028
:101D5A00530854040319080054088A0053080A0057
:101D6A008E310800873109278E31210059085A041B
:101D7A00031908005A088A0059080A008E31080017
:101D8A002800131DCF2E13107108920070089100BD
:101D9A0013140800710892007008910008002800C6
:101DAA001A1DDE2E1A1071089900700898001A146C
:101DBA0008007108990070089800080020008E1E1B
:101DCA00EC2E02302100CE000030CF000800013096
:101DDA002100CE000030CF0008008F31D3278E318A
:101DEA0000302100DF00E0008F31E9278E318D318C
:101DFA00BA252100131608008330250093009401A8
:101E0A00920191011F08FC3902389F00200014102A
:101E1A0021001414080020008E1E192F0230210000
:101E2A00CE000030CF00080001302100CE00003083
:101E3A00CF0008002100E30063080F39E2006208BE
:101E4A00E4006408863114262100E2006208E400F6
:101E5A006408080022008E15210014109410200036
:101E6A003808AE003708AD008031932021001414E1
:101E7A0022008E110800200013125C08280092002C
:101E8A0020005B082800910021005B085C0403190C
:101E9A0008005C088A005B080A008F3108002000ED
:101EAA0014125E082800990020005D082800980096
:101EBA0021005D085E04031908005E088A005D08B7
:101ECA000A008F31080020009701493098009B30A2
:101EDA00960095019012210090160230DF00003022
:101EEA00E0008D31FA258F318D31BD2508002000A3
:101EFA00141025001108FD007D082000BB002500F4
:101F0A001208FD007D082000BC003C08BA003B080E
:101F1A00B9008E311A2608000030F000F1008E3127
:101F2A00C5268F318D31A8258F312100131200303B
:101F3A00F000F1008E31D4268F318D31AB2521008E
:101F4A0014120800EF302000D900FF30D800FF300B
:101F5A00D700FF30D6000030C1000030C00000308A
:101F6A00BF000030BE00C401C501C601C701080098
:101F7A002100E4006408E2000430E236890BC22F33
:101F8A0062080F39E3006308E50065088631142604
:101F9A002100E2006208E50065080800EF30200031
:101FAA00D900FF30D800FF30D700FF30D60000300C
:101FBA00C1000030C0000030BF000030BE00C401C4
:101FCA00C501C601C70108002800131DF72F131009
:101FDA00210060082800920021005F082800910073
:101FEA0013140800210060082800920021005F08ED
:061FFA0028009100080020
:020000040001F9
:08000E00ECFFF3FFFFFFFFFF11
:00000001FF
